{
  "contractName": "ItemManager",
  "abi": [
    {
      "anonymous": false,
      "inputs": [
        {
          "indexed": false,
          "internalType": "uint256",
          "name": "_itemIndex",
          "type": "uint256"
        },
        {
          "indexed": false,
          "internalType": "uint256",
          "name": "_step",
          "type": "uint256"
        },
        {
          "indexed": false,
          "internalType": "address",
          "name": "_address",
          "type": "address"
        }
      ],
      "name": "SupplyChainStep",
      "type": "event"
    },
    {
      "inputs": [
        {
          "internalType": "uint256",
          "name": "",
          "type": "uint256"
        }
      ],
      "name": "items",
      "outputs": [
        {
          "internalType": "contract Item",
          "name": "_item",
          "type": "address"
        },
        {
          "internalType": "enum ItemManager.SupplyChainSteps",
          "name": "_step",
          "type": "uint8"
        },
        {
          "internalType": "string",
          "name": "_identifier",
          "type": "string"
        }
      ],
      "stateMutability": "view",
      "type": "function",
      "constant": true
    },
    {
      "inputs": [
        {
          "internalType": "string",
          "name": "_identifier",
          "type": "string"
        },
        {
          "internalType": "uint256",
          "name": "_priceInWei",
          "type": "uint256"
        }
      ],
      "name": "createItem",
      "outputs": [],
      "stateMutability": "nonpayable",
      "type": "function"
    },
    {
      "inputs": [
        {
          "internalType": "uint256",
          "name": "_index",
          "type": "uint256"
        }
      ],
      "name": "triggerPayment",
      "outputs": [],
      "stateMutability": "payable",
      "type": "function",
      "payable": true
    },
    {
      "inputs": [
        {
          "internalType": "uint256",
          "name": "_index",
          "type": "uint256"
        }
      ],
      "name": "triggerDelivery",
      "outputs": [],
      "stateMutability": "nonpayable",
      "type": "function"
    }
  ],
  "bytecode": "0x608060405234801561001057600080fd5b50610e20806100206000396000f3fe60806040526004361061003f5760003560e01c8063800fb83f146100445780638c55174214610072578063bfb231d214610144578063cd31831e14610240575b600080fd5b6100706004803603602081101561005a57600080fd5b810190808035906020019092919050505061027b565b005b34801561007e57600080fd5b506101426004803603604081101561009557600080fd5b81019080803590602001906401000000008111156100b257600080fd5b8201836020820111156100c457600080fd5b803590602001918460018302840111640100000000831117156100e657600080fd5b91908080601f016020809104026020016040519081016040528093929190818152602001838380828437600081840152601f19601f8201169050808301925050505050505091929192908035906020019092919050505061059c565b005b34801561015057600080fd5b5061017d6004803603602081101561016757600080fd5b8101908080359060200190929190505050610788565b604051808473ffffffffffffffffffffffffffffffffffffffff1673ffffffffffffffffffffffffffffffffffffffff1681526020018360028111156101bf57fe5b60ff16815260200180602001828103825283818151815260200191508051906020019080838360005b838110156102035780820151818401526020810190506101e8565b50505050905090810190601f1680156102305780820380516001836020036101000a031916815260200191505b5094505050505060405180910390f35b34801561024c57600080fd5b506102796004803603602081101561026357600080fd5b8101908080359060200190929190505050610877565b005b600080600083815260200190815260200160002060000160009054906101000a900473ffffffffffffffffffffffffffffffffffffffff1690503373ffffffffffffffffffffffffffffffffffffffff168173ffffffffffffffffffffffffffffffffffffffff1614610339576040517f08c379a000000000000000000000000000000000000000000000000000000000815260040180806020018281038252602b815260200180610d9d602b913960400191505060405180910390fd5b348173ffffffffffffffffffffffffffffffffffffffff16633c8da5886040518163ffffffff1660e01b815260040160206040518083038186803b15801561038057600080fd5b505afa158015610394573d6000803e3d6000fd5b505050506040513d60208110156103aa57600080fd5b81019080805190602001909291905050501461042e576040517f08c379a00000000000000000000000000000000000000000000000000000000081526004018080602001828103825260128152602001807f4e6f742066756c6c79207061696420796574000000000000000000000000000081525060200191505060405180910390fd5b6000600281111561043b57fe5b600080600154815260200190815260200160002060000160149054906101000a900460ff16600281111561046b57fe5b146104c1576040517f08c379a0000000000000000000000000000000000000000000000000000000008152600401808060200182810382526023815260200180610dc86023913960400191505060405180910390fd5b600160008084815260200190815260200160002060000160146101000a81548160ff021916908360028111156104f357fe5b02179055507fa4035636e99f06b7651a604c1019fa4e8779fe68ef27eeb74dff2de348f6199b8260008085815260200190815260200160002060000160149054906101000a900460ff16600281111561054857fe5b83604051808481526020018381526020018273ffffffffffffffffffffffffffffffffffffffff1673ffffffffffffffffffffffffffffffffffffffff168152602001935050505060405180910390a15050565b600030826001546040516105af90610a17565b808473ffffffffffffffffffffffffffffffffffffffff1673ffffffffffffffffffffffffffffffffffffffff1681526020018381526020018281526020019350505050604051809103906000f08015801561060f573d6000803e3d6000fd5b50905080600080600154815260200190815260200160002060000160006101000a81548173ffffffffffffffffffffffffffffffffffffffff021916908373ffffffffffffffffffffffffffffffffffffffff1602179055506000806000600154815260200190815260200160002060000160146101000a81548160ff0219169083600281111561069c57fe5b021790555082600080600154815260200190815260200160002060010190805190602001906106cc929190610a24565b507fa4035636e99f06b7651a604c1019fa4e8779fe68ef27eeb74dff2de348f6199b600154600080600154815260200190815260200160002060000160149054906101000a900460ff16600281111561072157fe5b83604051808481526020018381526020018273ffffffffffffffffffffffffffffffffffffffff1673ffffffffffffffffffffffffffffffffffffffff168152602001935050505060405180910390a1600160008154809291906001019190505550505050565b60006020528060005260406000206000915090508060000160009054906101000a900473ffffffffffffffffffffffffffffffffffffffff16908060000160149054906101000a900460ff1690806001018054600181600116156101000203166002900480601f01602080910402602001604051908101604052809291908181526020018280546001816001161561010002031660029004801561086d5780601f106108425761010080835404028352916020019161086d565b820191906000526020600020905b81548152906001019060200180831161085057829003601f168201915b5050505050905083565b6001600281111561088457fe5b60008083815260200190815260200160002060000160149054906101000a900460ff1660028111156108b257fe5b14610908576040517f08c379a0000000000000000000000000000000000000000000000000000000008152600401808060200182810382526023815260200180610dc86023913960400191505060405180910390fd5b600260008083815260200190815260200160002060000160146101000a81548160ff0219169083600281111561093a57fe5b02179055507fa4035636e99f06b7651a604c1019fa4e8779fe68ef27eeb74dff2de348f6199b8160008084815260200190815260200160002060000160149054906101000a900460ff16600281111561098f57fe5b60008085815260200190815260200160002060000160009054906101000a900473ffffffffffffffffffffffffffffffffffffffff16604051808481526020018381526020018273ffffffffffffffffffffffffffffffffffffffff1673ffffffffffffffffffffffffffffffffffffffff168152602001935050505060405180910390a150565b6102d380610aca83390190565b828054600181600116156101000203166002900490600052602060002090601f016020900481019282601f10610a6557805160ff1916838001178555610a93565b82800160010185558215610a93579182015b82811115610a92578251825591602001919060010190610a77565b5b509050610aa09190610aa4565b5090565b610ac691905b80821115610ac2576000816000905550600101610aaa565b5090565b9056fe608060405234801561001057600080fd5b506040516102d33803806102d38339818101604052606081101561003357600080fd5b81019080805190602001909291908051906020019092919080519060200190929190505050816000819055508060028190555082600360006101000a81548173ffffffffffffffffffffffffffffffffffffffff021916908373ffffffffffffffffffffffffffffffffffffffff16021790555050505061021a806100b96000396000f3fe6080604052600436106100385760003560e01c80632986c0e5146101305780633c8da5881461015b57806383d12eef1461018657610121565b36610121576000543414610097576040517f08c379a00000000000000000000000000000000000000000000000000000000081526004018080602001828103825260218152602001806101c46021913960400191505060405180910390fd5b60006001541461010f576040517f08c379a00000000000000000000000000000000000000000000000000000000081526004018080602001828103825260158152602001807f4974656d20697320616c7265616479207061696421000000000000000000000081525060200191505060405180910390fd5b34600160008282540192505081905550005b34801561012d57600080fd5b50005b34801561013c57600080fd5b506101456101b1565b6040518082815260200191505060405180910390f35b34801561016757600080fd5b506101706101b7565b6040518082815260200191505060405180910390f35b34801561019257600080fd5b5061019b6101bd565b6040518082815260200191505060405180910390f35b60025481565b60005481565b6001548156fe576520646f6e277420737570706f7274207061727469616c207061796d656e7473a2646970667358221220b38867f4abd3eda58f18d63853200c846b3190c1709ac72486940d2b7993f69164736f6c634300060100334f6e6c79206974656d732061726520616c6c6f77656420746f20757064617465207468656d73656c7665734974656d206973206675727468657220696e2074686520737570706c7920636861696ea2646970667358221220958a66fac9d4a8984b8a082dfea915af55efed81957a962be6191020f091cbf864736f6c63430006010033",
  "source": "pragma solidity ^0.6.0;\n\nimport \"./Ownable.sol\";\nimport \"./Item.sol\";\n\ncontract ItemManager {\n\n struct S_Item {\n Item _item;\n ItemManager.SupplyChainSteps _step;\n string _identifier;\n }\n mapping(uint => S_Item) public items;\n uint index;\n\n enum SupplyChainSteps {Created, Paid, Delivered}\n\n event SupplyChainStep(uint _itemIndex, uint _step, address _address);\n\n function createItem(string memory _identifier, uint _priceInWei) public {\n Item item = new Item(this, _priceInWei, index);\n items[index]._item = item;\n items[index]._step = SupplyChainSteps.Created;\n items[index]._identifier = _identifier;\n emit SupplyChainStep(index, uint(items[index]._step), address(item));\n index++;\n }\n\n function triggerPayment(uint _index) public payable {\n Item item = items[_index]._item;\n require(address(item) == msg.sender, \"Only items are allowed to update themselves\"\n);\n require(item.priceInWei() == msg.value, \"Not fully paid yet\");\n require(items[index]._step == SupplyChainSteps.Created, \"Item is further in the supply chain\");\n items[_index]._step = SupplyChainSteps.Paid;\n emit SupplyChainStep(_index, uint(items[_index]._step), address(item));\n }\n\n function triggerDelivery(uint _index) public {\n require(items[_index]._step == SupplyChainSteps.Paid, \"Item is further in the supply chain\");\n items[_index]._step = SupplyChainSteps.Delivered;\n emit SupplyChainStep(_index, uint(items[_index]._step), address(items[_index]._item));\n }\n}",
  "sourcePath": "/Users/alejandrodejesus/Desktop/pruebaTruffle/contracts/ItemManager.sol",
  "compiler": {
    "name": "solc",
    "version": "0.6.1+commit.e6f7d5a4.Emscripten.clang"
  },
  "schemaVersion": "3.4.3",
  "updatedAt": "2021-09-06T19:12:00.064Z",
  "networkType": "ethereum",
  "devdoc": {
    "methods": {}
  },
  "userdoc": {
    "methods": {}
  }
}