{
  "contractName": "Item",
  "abi": [
    {
      "inputs": [
        {
          "internalType": "contract ItemManager",
          "name": "_parentContract",
          "type": "address"
        },
        {
          "internalType": "uint256",
          "name": "_priceInWei",
          "type": "uint256"
        },
        {
          "internalType": "uint256",
          "name": "_index",
          "type": "uint256"
        }
      ],
      "stateMutability": "nonpayable",
      "type": "constructor"
    },
    {
      "stateMutability": "nonpayable",
      "type": "fallback"
    },
    {
      "inputs": [],
      "name": "index",
      "outputs": [
        {
          "internalType": "uint256",
          "name": "",
          "type": "uint256"
        }
      ],
      "stateMutability": "view",
      "type": "function"
    },
    {
      "inputs": [],
      "name": "paidWei",
      "outputs": [
        {
          "internalType": "uint256",
          "name": "",
          "type": "uint256"
        }
      ],
      "stateMutability": "view",
      "type": "function"
    },
    {
      "inputs": [],
      "name": "priceInWei",
      "outputs": [
        {
          "internalType": "uint256",
          "name": "",
          "type": "uint256"
        }
      ],
      "stateMutability": "view",
      "type": "function"
    },
    {
      "stateMutability": "payable",
      "type": "receive"
    }
  ],
  "bytecode": "0x608060405234801561001057600080fd5b506040516102d33803806102d38339818101604052606081101561003357600080fd5b81019080805190602001909291908051906020019092919080519060200190929190505050816000819055508060028190555082600360006101000a81548173ffffffffffffffffffffffffffffffffffffffff021916908373ffffffffffffffffffffffffffffffffffffffff16021790555050505061021a806100b96000396000f3fe6080604052600436106100385760003560e01c80632986c0e5146101305780633c8da5881461015b57806383d12eef1461018657610121565b36610121576000543414610097576040517f08c379a00000000000000000000000000000000000000000000000000000000081526004018080602001828103825260218152602001806101c46021913960400191505060405180910390fd5b60006001541461010f576040517f08c379a00000000000000000000000000000000000000000000000000000000081526004018080602001828103825260158152602001807f4974656d20697320616c7265616479207061696421000000000000000000000081525060200191505060405180910390fd5b34600160008282540192505081905550005b34801561012d57600080fd5b50005b34801561013c57600080fd5b506101456101b1565b6040518082815260200191505060405180910390f35b34801561016757600080fd5b506101706101b7565b6040518082815260200191505060405180910390f35b34801561019257600080fd5b5061019b6101bd565b6040518082815260200191505060405180910390f35b60025481565b60005481565b6001548156fe576520646f6e277420737570706f7274207061727469616c207061796d656e7473a2646970667358221220b38867f4abd3eda58f18d63853200c846b3190c1709ac72486940d2b7993f69164736f6c63430006010033",
  "source": "pragma solidity ^0.6.0;\n\nimport \"./ItemManager.sol\";\ncontract Item {\n uint public priceInWei;\n uint public paidWei;\n uint public index;\n\n ItemManager parentContract;\n\n constructor(ItemManager _parentContract, uint _priceInWei, uint _index) public {\n    priceInWei = _priceInWei;\n    index = _index;\n    parentContract = _parentContract;\n }\n\n receive() external payable {\n require(msg.value == priceInWei, \"We don't support partial payments\");\n require(paidWei == 0, \"Item is already paid!\");\n paidWei += msg.value;\n //(bool success, ) = address(parentContract).call{value:msg.value}(abi.encodeWithSignature(\"triggerPayment(uint256)\", index));\n //require(success, \"Delivery did not work\");\n }\n\n fallback () external {\n\n }\n\n}",
  "sourcePath": "/Users/alejandrodejesus/Desktop/pruebaTruffle/contracts/Item.sol",
  "compiler": {
    "name": "solc",
    "version": "0.6.1+commit.e6f7d5a4.Emscripten.clang"
  },
  "schemaVersion": "3.4.3",
  "updatedAt": "2021-09-06T19:11:59.243Z",
  "devdoc": {
    "methods": {}
  },
  "userdoc": {
    "methods": {}
  }
}